{
  "_format": "hh-sol-artifact-1",
  "contractName": "Exchange",
  "sourceName": "contracts/Exchange.sol",
  "abi": [
    {
      "inputs": [
        {
          "internalType": "address",
          "name": "_token",
          "type": "address"
        }
      ],
      "stateMutability": "nonpayable",
      "type": "constructor"
    },
    {
      "anonymous": false,
      "inputs": [
        {
          "indexed": true,
          "internalType": "address",
          "name": "provider",
          "type": "address"
        },
        {
          "indexed": true,
          "internalType": "uint256",
          "name": "ethAmount",
          "type": "uint256"
        },
        {
          "indexed": true,
          "internalType": "uint256",
          "name": "tokenAmount",
          "type": "uint256"
        }
      ],
      "name": "AddLiquidity",
      "type": "event"
    },
    {
      "anonymous": false,
      "inputs": [
        {
          "indexed": true,
          "internalType": "address",
          "name": "owner",
          "type": "address"
        },
        {
          "indexed": true,
          "internalType": "address",
          "name": "spender",
          "type": "address"
        },
        {
          "indexed": false,
          "internalType": "uint256",
          "name": "value",
          "type": "uint256"
        }
      ],
      "name": "Approval",
      "type": "event"
    },
    {
      "anonymous": false,
      "inputs": [
        {
          "indexed": true,
          "internalType": "address",
          "name": "buyer",
          "type": "address"
        },
        {
          "indexed": true,
          "internalType": "uint256",
          "name": "tokensSold",
          "type": "uint256"
        },
        {
          "indexed": true,
          "internalType": "uint256",
          "name": "ethBought",
          "type": "uint256"
        }
      ],
      "name": "EthPurchase",
      "type": "event"
    },
    {
      "anonymous": false,
      "inputs": [
        {
          "indexed": true,
          "internalType": "address",
          "name": "provider",
          "type": "address"
        },
        {
          "indexed": true,
          "internalType": "uint256",
          "name": "ethAmount",
          "type": "uint256"
        },
        {
          "indexed": true,
          "internalType": "uint256",
          "name": "tokenAmount",
          "type": "uint256"
        }
      ],
      "name": "RemoveLiquidity",
      "type": "event"
    },
    {
      "anonymous": false,
      "inputs": [
        {
          "indexed": true,
          "internalType": "address",
          "name": "buyer",
          "type": "address"
        },
        {
          "indexed": true,
          "internalType": "uint256",
          "name": "ethSold",
          "type": "uint256"
        },
        {
          "indexed": true,
          "internalType": "uint256",
          "name": "tokensBought",
          "type": "uint256"
        }
      ],
      "name": "TokenPurchase",
      "type": "event"
    },
    {
      "anonymous": false,
      "inputs": [
        {
          "indexed": true,
          "internalType": "address",
          "name": "from",
          "type": "address"
        },
        {
          "indexed": true,
          "internalType": "address",
          "name": "to",
          "type": "address"
        },
        {
          "indexed": false,
          "internalType": "uint256",
          "name": "value",
          "type": "uint256"
        }
      ],
      "name": "Transfer",
      "type": "event"
    },
    {
      "inputs": [
        {
          "internalType": "uint256",
          "name": "_tokenAmount",
          "type": "uint256"
        }
      ],
      "name": "addLiquidity",
      "outputs": [
        {
          "internalType": "uint256",
          "name": "",
          "type": "uint256"
        }
      ],
      "stateMutability": "payable",
      "type": "function"
    },
    {
      "inputs": [
        {
          "internalType": "address",
          "name": "owner",
          "type": "address"
        },
        {
          "internalType": "address",
          "name": "spender",
          "type": "address"
        }
      ],
      "name": "allowance",
      "outputs": [
        {
          "internalType": "uint256",
          "name": "",
          "type": "uint256"
        }
      ],
      "stateMutability": "view",
      "type": "function"
    },
    {
      "inputs": [
        {
          "internalType": "address",
          "name": "spender",
          "type": "address"
        },
        {
          "internalType": "uint256",
          "name": "amount",
          "type": "uint256"
        }
      ],
      "name": "approve",
      "outputs": [
        {
          "internalType": "bool",
          "name": "",
          "type": "bool"
        }
      ],
      "stateMutability": "nonpayable",
      "type": "function"
    },
    {
      "inputs": [
        {
          "internalType": "address",
          "name": "account",
          "type": "address"
        }
      ],
      "name": "balanceOf",
      "outputs": [
        {
          "internalType": "uint256",
          "name": "",
          "type": "uint256"
        }
      ],
      "stateMutability": "view",
      "type": "function"
    },
    {
      "inputs": [],
      "name": "decimals",
      "outputs": [
        {
          "internalType": "uint8",
          "name": "",
          "type": "uint8"
        }
      ],
      "stateMutability": "view",
      "type": "function"
    },
    {
      "inputs": [
        {
          "internalType": "address",
          "name": "spender",
          "type": "address"
        },
        {
          "internalType": "uint256",
          "name": "subtractedValue",
          "type": "uint256"
        }
      ],
      "name": "decreaseAllowance",
      "outputs": [
        {
          "internalType": "bool",
          "name": "",
          "type": "bool"
        }
      ],
      "stateMutability": "nonpayable",
      "type": "function"
    },
    {
      "inputs": [
        {
          "internalType": "uint256",
          "name": "_minAmount",
          "type": "uint256"
        }
      ],
      "name": "ethToTokenSwap",
      "outputs": [],
      "stateMutability": "payable",
      "type": "function"
    },
    {
      "inputs": [
        {
          "internalType": "uint256",
          "name": "_minAmount",
          "type": "uint256"
        },
        {
          "internalType": "address",
          "name": "recipient",
          "type": "address"
        }
      ],
      "name": "ethToTokenTransfer",
      "outputs": [],
      "stateMutability": "payable",
      "type": "function"
    },
    {
      "inputs": [
        {
          "internalType": "uint256",
          "name": "_tokenSold",
          "type": "uint256"
        }
      ],
      "name": "getEthAmount",
      "outputs": [
        {
          "internalType": "uint256",
          "name": "",
          "type": "uint256"
        }
      ],
      "stateMutability": "view",
      "type": "function"
    },
    {
      "inputs": [],
      "name": "getReserve",
      "outputs": [
        {
          "internalType": "uint256",
          "name": "",
          "type": "uint256"
        }
      ],
      "stateMutability": "view",
      "type": "function"
    },
    {
      "inputs": [
        {
          "internalType": "uint256",
          "name": "_ethSold",
          "type": "uint256"
        }
      ],
      "name": "getTokenAmount",
      "outputs": [
        {
          "internalType": "uint256",
          "name": "",
          "type": "uint256"
        }
      ],
      "stateMutability": "view",
      "type": "function"
    },
    {
      "inputs": [
        {
          "internalType": "uint256",
          "name": "_tokensSold",
          "type": "uint256"
        },
        {
          "internalType": "address",
          "name": "_tokenAddress",
          "type": "address"
        }
      ],
      "name": "getTokenToTokenAmount",
      "outputs": [
        {
          "internalType": "uint256",
          "name": "",
          "type": "uint256"
        }
      ],
      "stateMutability": "view",
      "type": "function"
    },
    {
      "inputs": [
        {
          "internalType": "address",
          "name": "spender",
          "type": "address"
        },
        {
          "internalType": "uint256",
          "name": "addedValue",
          "type": "uint256"
        }
      ],
      "name": "increaseAllowance",
      "outputs": [
        {
          "internalType": "bool",
          "name": "",
          "type": "bool"
        }
      ],
      "stateMutability": "nonpayable",
      "type": "function"
    },
    {
      "inputs": [],
      "name": "name",
      "outputs": [
        {
          "internalType": "string",
          "name": "",
          "type": "string"
        }
      ],
      "stateMutability": "view",
      "type": "function"
    },
    {
      "inputs": [],
      "name": "registryAddress",
      "outputs": [
        {
          "internalType": "address",
          "name": "",
          "type": "address"
        }
      ],
      "stateMutability": "view",
      "type": "function"
    },
    {
      "inputs": [
        {
          "internalType": "uint256",
          "name": "_amount",
          "type": "uint256"
        }
      ],
      "name": "removeLiquidity",
      "outputs": [
        {
          "internalType": "uint256",
          "name": "",
          "type": "uint256"
        },
        {
          "internalType": "uint256",
          "name": "",
          "type": "uint256"
        }
      ],
      "stateMutability": "nonpayable",
      "type": "function"
    },
    {
      "inputs": [],
      "name": "symbol",
      "outputs": [
        {
          "internalType": "string",
          "name": "",
          "type": "string"
        }
      ],
      "stateMutability": "view",
      "type": "function"
    },
    {
      "inputs": [],
      "name": "tokenAddress",
      "outputs": [
        {
          "internalType": "address",
          "name": "",
          "type": "address"
        }
      ],
      "stateMutability": "view",
      "type": "function"
    },
    {
      "inputs": [
        {
          "internalType": "uint256",
          "name": "_tokenAmount",
          "type": "uint256"
        },
        {
          "internalType": "uint256",
          "name": "_minEth",
          "type": "uint256"
        }
      ],
      "name": "tokenToEthSwap",
      "outputs": [],
      "stateMutability": "payable",
      "type": "function"
    },
    {
      "inputs": [
        {
          "internalType": "uint256",
          "name": "_tokensSold",
          "type": "uint256"
        },
        {
          "internalType": "uint256",
          "name": "_minTokensBought",
          "type": "uint256"
        },
        {
          "internalType": "address",
          "name": "_tokenAddress",
          "type": "address"
        }
      ],
      "name": "tokenToTokenSwap",
      "outputs": [],
      "stateMutability": "nonpayable",
      "type": "function"
    },
    {
      "inputs": [],
      "name": "totalSupply",
      "outputs": [
        {
          "internalType": "uint256",
          "name": "",
          "type": "uint256"
        }
      ],
      "stateMutability": "view",
      "type": "function"
    },
    {
      "inputs": [
        {
          "internalType": "address",
          "name": "recipient",
          "type": "address"
        },
        {
          "internalType": "uint256",
          "name": "amount",
          "type": "uint256"
        }
      ],
      "name": "transfer",
      "outputs": [
        {
          "internalType": "bool",
          "name": "",
          "type": "bool"
        }
      ],
      "stateMutability": "nonpayable",
      "type": "function"
    },
    {
      "inputs": [
        {
          "internalType": "address",
          "name": "sender",
          "type": "address"
        },
        {
          "internalType": "address",
          "name": "recipient",
          "type": "address"
        },
        {
          "internalType": "uint256",
          "name": "amount",
          "type": "uint256"
        }
      ],
      "name": "transferFrom",
      "outputs": [
        {
          "internalType": "bool",
          "name": "",
          "type": "bool"
        }
      ],
      "stateMutability": "nonpayable",
      "type": "function"
    }
  ],
  "bytecode": "0x60806040523480156200001157600080fd5b5060405162001ce338038062001ce38339810160408190526200003491620001ea565b6040518060400160405280600f81526020016e4465784669204c5020546f6b656e7360881b8152506040518060400160405280600381526020016258464960e81b81525081600390805190602001906200009092919062000144565b508051620000a690600490602084019062000144565b5050506001600160a01b038116620001155760405162461bcd60e51b815260206004820152602860248201527f746f6b656e20616464726573732063616e6e6f7420626520746865207a65726f604482015267206164647265737360c01b606482015260840160405180910390fd5b600580546001600160a01b039092166001600160a01b0319928316179055600680549091163317905562000257565b82805462000152906200021a565b90600052602060002090601f016020900481019282620001765760008555620001c1565b82601f106200019157805160ff1916838001178555620001c1565b82800160010185558215620001c1579182015b82811115620001c1578251825591602001919060010190620001a4565b50620001cf929150620001d3565b5090565b5b80821115620001cf5760008155600101620001d4565b600060208284031215620001fc578081fd5b81516001600160a01b038116811462000213578182fd5b9392505050565b600181811c908216806200022f57607f821691505b602082108114156200025157634e487b7160e01b600052602260045260246000fd5b50919050565b611a7c80620002676000396000f3fe6080604052600436106101405760003560e01c80638fc7a25d116100b6578063c2507ac11161006f578063c2507ac114610390578063dd62ed3e146103b0578063e0486c8a146103f6578063ed9aab5114610409578063f7a7e32414610429578063f979dcd71461044957600080fd5b80638fc7a25d146102ae57806395d89b41146102ce5780639c8f9f23146102e35780639d76ea5814610318578063a457c2d714610350578063a9059cbb1461037057600080fd5b8063389d9a4011610108578063389d9a40146101fb57806339509351146102105780634fe78f6f1461023057806351c6590a1461025057806359bf5d391461026357806370a082311461027857600080fd5b806306fdde0314610145578063095ea7b31461017057806318160ddd146101a057806323b872dd146101bf578063313ce567146101df575b600080fd5b34801561015157600080fd5b5061015a61045c565b6040516101679190611850565b60405180910390f35b34801561017c57600080fd5b5061019061018b366004611758565b6104ee565b6040519015158152602001610167565b3480156101ac57600080fd5b506002545b604051908152602001610167565b3480156101cb57600080fd5b506101906101da366004611718565b610504565b3480156101eb57600080fd5b5060405160128152602001610167565b61020e6102093660046117d3565b6105b3565b005b34801561021c57600080fd5b5061019061022b366004611758565b6105c1565b34801561023c57600080fd5b506101b161024b3660046117d3565b6105fd565b6101b161025e3660046117a3565b610796565b34801561026f57600080fd5b506101b1610922565b34801561028457600080fd5b506101b16102933660046116a8565b6001600160a01b031660009081526020819052604090205490565b3480156102ba57600080fd5b506101b16102c93660046117a3565b6109a3565b3480156102da57600080fd5b5061015a6109e2565b3480156102ef57600080fd5b506103036102fe3660046117a3565b6109f1565b60408051928352602083019190915201610167565b34801561032457600080fd5b50600554610338906001600160a01b031681565b6040516001600160a01b039091168152602001610167565b34801561035c57600080fd5b5061019061036b366004611758565b610b7c565b34801561037c57600080fd5b5061019061038b366004611758565b610c15565b34801561039c57600080fd5b506101b16103ab3660046117a3565b610c22565b3480156103bc57600080fd5b506101b16103cb3660046116e0565b6001600160a01b03918216600090815260016020908152604080832093909416825291909152205490565b61020e6104043660046117f7565b610c5a565b34801561041557600080fd5b50600654610338906001600160a01b031681565b34801561043557600080fd5b5061020e610444366004611818565b610dca565b61020e6104573660046117a3565b610fc6565b60606003805461046b906119e0565b80601f0160208091040260200160405190810160405280929190818152602001828054610497906119e0565b80156104e45780601f106104b9576101008083540402835291602001916104e4565b820191906000526020600020905b8154815290600101906020018083116104c757829003601f168201915b5050505050905090565b60006104fb338484610fd3565b50600192915050565b60006105118484846110f8565b6001600160a01b03841660009081526001602090815260408083203384529091529020548281101561059b5760405162461bcd60e51b815260206004820152602860248201527f45524332303a207472616e7366657220616d6f756e74206578636565647320616044820152676c6c6f77616e636560c01b60648201526084015b60405180910390fd5b6105a88533858403610fd3565b506001949350505050565b6105bd82826112c7565b5050565b3360008181526001602090815260408083206001600160a01b038716845290915281205490916104fb9185906105f8908690611972565b610fd3565b6006546040516303795fb160e11b81526001600160a01b03838116600483015260009283929116906306f2bf629060240160206040518083038186803b15801561064657600080fd5b505afa15801561065a573d6000803e3d6000fd5b505050506040513d601f19601f8201168201806040525081019061067e91906116c4565b90506001600160a01b0381166106a65760405162461bcd60e51b8152600401610592906118a3565b6001600160a01b0381163014156106fa5760405162461bcd60e51b8152602060048201526018602482015277496e76616c69642065786368616e6765206164647265737360401b6044820152606401610592565b600061070e85610708610922565b476113e4565b60405163c2507ac160e01b8152600481018290529091506000906001600160a01b0384169063c2507ac19060240160206040518083038186803b15801561075457600080fd5b505afa158015610768573d6000803e3d6000fd5b505050506040513d601f19601f8201168201806040525081019061078c91906117bb565b9695505050505050565b6000806107a260025490565b6107ad575047610855565b60006107b934476119c9565b905060006107c5610922565b90506000826107d483346119aa565b6107de919061198a565b9050808610156108305760405162461bcd60e51b815260206004820152601760248201527f546f6b656e20616d6f756e7420697320746f6f206c6f770000000000000000006044820152606401610592565b823461083b60025490565b61084591906119aa565b61084f919061198a565b93505050505b6005546040516323b872dd60e01b8152336004820152306024820152604481018590526001600160a01b039091169081906323b872dd90606401602060405180830381600087803b1580156108a957600080fd5b505af11580156108bd573d6000803e3d6000fd5b505050506040513d601f19601f820116820180604052508101906108e19190611783565b506108ec3383611483565b6040518490349033907f06239653922ac7bea6aa2b19dc486b9361821d37712eb796adfd38d81de278ca90600090a45092915050565b6005546040516370a0823160e01b81523060048201526000916001600160a01b0316906370a082319060240160206040518083038186803b15801561096657600080fd5b505afa15801561097a573d6000803e3d6000fd5b505050506040513d601f19601f8201168201806040525081019061099e91906117bb565b905090565b60008082116109c45760405162461bcd60e51b8152600401610592906118e5565b60006109ce610922565b90506109db8382476113e4565b9392505050565b60606004805461046b906119e0565b60008060008311610a385760405162461bcd60e51b8152602060048201526011602482015270416d6f756e7420697320746f6f206c6f7760781b6044820152606401610592565b6000610a4360025490565b610a4d85476119aa565b610a57919061198a565b90506000610a6460025490565b85610a6d610922565b610a7791906119aa565b610a81919061198a565b9050610a8d3386611562565b604051339083156108fc029084906000818181858888f19350505050158015610aba573d6000803e3d6000fd5b5060055460405163a9059cbb60e01b8152336004820152602481018390526001600160a01b0390911690819063a9059cbb90604401602060405180830381600087803b158015610b0957600080fd5b505af1158015610b1d573d6000803e3d6000fd5b505050506040513d601f19601f82011682018060405250810190610b419190611783565b506040518290849033907f0fbf06c058b90cb038a618f8c2acbf6145f8b3570fd1fa56abb8f0f3f05b36e890600090a4509094909350915050565b3360009081526001602090815260408083206001600160a01b038616845290915281205482811015610bfe5760405162461bcd60e51b815260206004820152602560248201527f45524332303a2064656372656173656420616c6c6f77616e63652062656c6f77604482015264207a65726f60d81b6064820152608401610592565b610c0b3385858403610fd3565b5060019392505050565b60006104fb3384846110f8565b6000808211610c435760405162461bcd60e51b8152600401610592906118e5565b6000610c4d610922565b90506109db8347836113e4565b60008211610caa5760405162461bcd60e51b815260206004820152601960248201527f596f75206d757374206861766520736f6d6520746f6b656e73000000000000006044820152606401610592565b6000610cb883610708610922565b905081811015610cda5760405162461bcd60e51b815260040161059290611915565b6005546040516323b872dd60e01b8152336004820152306024820152604481018590526001600160a01b039091169081906323b872dd90606401602060405180830381600087803b158015610d2e57600080fd5b505af1158015610d42573d6000803e3d6000fd5b505050506040513d601f19601f82011682018060405250810190610d669190611783565b50604051339083156108fc029084906000818181858888f19350505050158015610d94573d6000803e3d6000fd5b506040518490839033907f7f4091b46c33e918a0f3aa42307641d17bb67029427a5369e54b35398423870590600090a450505050565b6006546040516303795fb160e11b81526001600160a01b03838116600483015260009216906306f2bf629060240160206040518083038186803b158015610e1057600080fd5b505afa158015610e24573d6000803e3d6000fd5b505050506040513d601f19601f82011682018060405250810190610e4891906116c4565b90506001600160a01b038116610e705760405162461bcd60e51b8152600401610592906118a3565b6001600160a01b038116301415610ec45760405162461bcd60e51b8152602060048201526018602482015277496e76616c69642065786368616e6765206164647265737360401b6044820152606401610592565b6000610ed285610708610922565b6005546040516323b872dd60e01b8152336004820152306024820152604481018890529192506001600160a01b0316906323b872dd90606401602060405180830381600087803b158015610f2557600080fd5b505af1158015610f39573d6000803e3d6000fd5b505050506040513d601f19601f82011682018060405250810190610f5d9190611783565b5060405162e2766960e61b8152600481018590523360248201526001600160a01b0383169063389d9a409083906044016000604051808303818588803b158015610fa657600080fd5b505af1158015610fba573d6000803e3d6000fd5b50505050505050505050565b610fd081336112c7565b50565b6001600160a01b0383166110355760405162461bcd60e51b8152602060048201526024808201527f45524332303a20617070726f76652066726f6d20746865207a65726f206164646044820152637265737360e01b6064820152608401610592565b6001600160a01b0382166110965760405162461bcd60e51b815260206004820152602260248201527f45524332303a20617070726f766520746f20746865207a65726f206164647265604482015261737360f01b6064820152608401610592565b6001600160a01b0383811660008181526001602090815260408083209487168084529482529182902085905590518481527f8c5be1e5ebec7d5bd14f71427d1e84f3dd0314c0f7b2291e5b200ac8c7c3b92591015b60405180910390a3505050565b6001600160a01b03831661115c5760405162461bcd60e51b815260206004820152602560248201527f45524332303a207472616e736665722066726f6d20746865207a65726f206164604482015264647265737360d81b6064820152608401610592565b6001600160a01b0382166111be5760405162461bcd60e51b815260206004820152602360248201527f45524332303a207472616e7366657220746f20746865207a65726f206164647260448201526265737360e81b6064820152608401610592565b6001600160a01b038316600090815260208190526040902054818110156112365760405162461bcd60e51b815260206004820152602660248201527f45524332303a207472616e7366657220616d6f756e7420657863656564732062604482015265616c616e636560d01b6064820152608401610592565b6001600160a01b0380851660009081526020819052604080822085850390559185168152908120805484929061126d908490611972565b92505081905550826001600160a01b0316846001600160a01b03167fddf252ad1be2c89b69c2b068fc378daa952ba7f163c4a11628f55a4df523b3ef846040516112b991815260200190565b60405180910390a350505050565b600034116112e75760405162461bcd60e51b8152600401610592906118e5565b6000611304346112f781476119c9565b6112ff610922565b6113e4565b9050828110156113265760405162461bcd60e51b815260040161059290611915565b60055460405163a9059cbb60e01b81526001600160a01b0384811660048301526024820184905290911690819063a9059cbb90604401602060405180830381600087803b15801561137657600080fd5b505af115801561138a573d6000803e3d6000fd5b505050506040513d601f19601f820116820180604052508101906113ae9190611783565b506040518290349033907fcd60aa75dea3072fbc07ae6d7d856b5dc5f4eee88854f5b4abf7b680ef8bc50f90600090a450505050565b600080831180156113f55750600082115b6114345760405162461bcd60e51b815260206004820152601060248201526f696e76616c696420726573657276657360801b6044820152606401610592565b60006114418560636119aa565b9050600061144f84836119aa565b905060008261145f8760646119aa565b6114699190611972565b90506000611477828461198a565b98975050505050505050565b6001600160a01b0382166114d95760405162461bcd60e51b815260206004820152601f60248201527f45524332303a206d696e7420746f20746865207a65726f2061646472657373006044820152606401610592565b80600260008282546114eb9190611972565b90915550506001600160a01b03821660009081526020819052604081208054839290611518908490611972565b90915550506040518181526001600160a01b038316906000907fddf252ad1be2c89b69c2b068fc378daa952ba7f163c4a11628f55a4df523b3ef9060200160405180910390a35050565b6001600160a01b0382166115c25760405162461bcd60e51b815260206004820152602160248201527f45524332303a206275726e2066726f6d20746865207a65726f206164647265736044820152607360f81b6064820152608401610592565b6001600160a01b038216600090815260208190526040902054818110156116365760405162461bcd60e51b815260206004820152602260248201527f45524332303a206275726e20616d6f756e7420657863656564732062616c616e604482015261636560f01b6064820152608401610592565b6001600160a01b03831660009081526020819052604081208383039055600280548492906116659084906119c9565b90915550506040518281526000906001600160a01b038516907fddf252ad1be2c89b69c2b068fc378daa952ba7f163c4a11628f55a4df523b3ef906020016110eb565b6000602082840312156116b9578081fd5b81356109db81611a31565b6000602082840312156116d5578081fd5b81516109db81611a31565b600080604083850312156116f2578081fd5b82356116fd81611a31565b9150602083013561170d81611a31565b809150509250929050565b60008060006060848603121561172c578081fd5b833561173781611a31565b9250602084013561174781611a31565b929592945050506040919091013590565b6000806040838503121561176a578182fd5b823561177581611a31565b946020939093013593505050565b600060208284031215611794578081fd5b815180151581146109db578182fd5b6000602082840312156117b4578081fd5b5035919050565b6000602082840312156117cc578081fd5b5051919050565b600080604083850312156117e5578182fd5b82359150602083013561170d81611a31565b60008060408385031215611809578182fd5b50508035926020909101359150565b60008060006060848603121561182c578283fd5b8335925060208401359150604084013561184581611a31565b809150509250925092565b6000602080835283518082850152825b8181101561187c57858101830151858201604001528201611860565b8181111561188d5783604083870101525b50601f01601f1916929092016040019392505050565b60208082526022908201527f54686572652773206e6f20726567697374727920666f72207468697320746f6b60408201526132b760f11b606082015260800190565b6020808252601690820152750b2deea40daeae6e840d0c2ecca40e6dedaca408aa8960531b604082015260600190565b6020808252603e908201527f4e6f7420656e6f756768206c697175696469747920696e2074686520636f6e7460408201527f7261637420746f2067657420746865206d696e696d756d20616d6f756e740000606082015260800190565b6000821982111561198557611985611a1b565b500190565b6000826119a557634e487b7160e01b81526012600452602481fd5b500490565b60008160001904831182151516156119c4576119c4611a1b565b500290565b6000828210156119db576119db611a1b565b500390565b600181811c908216806119f457607f821691505b60208210811415611a1557634e487b7160e01b600052602260045260246000fd5b50919050565b634e487b7160e01b600052601160045260246000fd5b6001600160a01b0381168114610fd057600080fdfea2646970667358221220afc8f8bc8c84102ff29545cd61ec30c022836ca7637c6f844ca23548dfd88eff64736f6c63430008040033",
  "linkReferences": {},
  "deployedLinkReferences": {}
}